{
	"data": {
		"bytecode": {
			"linkReferences": {},
			"object": "6080604052348015600e575f80fd5b505f805f6101000a81548160ff02191690836004811115602f57602e6038565b5b02179055506065565b7f4e487b71000000000000000000000000000000000000000000000000000000005f52602160045260245ffd5b6115e1806100725f395ff3fe608060405234801561000f575f80fd5b5060043610610086575f3560e01c80639f4216e8116100595780639f4216e8146100fe578063ae534ec814610132578063b260c42a1461014e578063d1cb3f321461016a57610086565b806331f011401461008a57806338f14845146100ba5780634dc415de146100d657806389ec615d146100e0575b5f80fd5b6100a4600480360381019061009f9190610b6f565b610186565b6040516100b19190610d0d565b60405180910390f35b6100d460048036038101906100cf9190610b6f565b61043a565b005b6100de6105d4565b005b6100e86105ff565b6040516100f59190610d3c565b60405180910390f35b61011860048036038101906101139190610b6f565b61060f565b604051610129959493929190610dac565b60405180910390f35b61014c60048036038101906101479190610f3e565b6107ee565b005b61016860048036038101906101639190610b6f565b6108d0565b005b610184600480360381019061017f9190610b6f565b610969565b005b61018e610a94565b5f5b6001805490508110156103f95782600182815481106101b2576101b1610ff6565b5b905f5260205f2090600502015f0154036103ec57600181815481106101da576101d9610ff6565b5b905f5260205f2090600502016040518060a00160405290815f820154815260200160018201805461020a90611050565b80601f016020809104026020016040519081016040528092919081815260200182805461023690611050565b80156102815780601f1061025857610100808354040283529160200191610281565b820191905f5260205f20905b81548152906001019060200180831161026457829003601f168201915b5050505050815260200160028201805461029a90611050565b80601f01602080910402602001604051908101604052809291908181526020018280546102c690611050565b80156103115780601f106102e857610100808354040283529160200191610311565b820191905f5260205f20905b8154815290600101906020018083116102f457829003601f168201915b5050505050815260200160038201805461032a90611050565b80601f016020809104026020016040519081016040528092919081815260200182805461035690611050565b80156103a15780601f10610378576101008083540402835291602001916103a1565b820191905f5260205f20905b81548152906001019060200180831161038457829003601f168201915b50505050508152602001600482015f9054906101000a900460ff1660048111156103ce576103cd610c19565b5b60048111156103e0576103df610c19565b5b81525050915050610435565b8080600101915050610190565b506040517f08c379a000000000000000000000000000000000000000000000000000000000815260040161042c906110ca565b60405180910390fd5b919050565b5f61044482610a01565b9050600180549050811061048d576040517f08c379a000000000000000000000000000000000000000000000000000000000815260040161048490611132565b60405180910390fd5b600180808054905061049f919061117d565b815481106104b0576104af610ff6565b5b905f5260205f209060050201600182815481106104d0576104cf610ff6565b5b905f5260205f2090600502015f820154815f0155600182018160010190816104f89190611362565b506002820181600201908161050d9190611362565b50600382018160030190816105229190611362565b50600482015f9054906101000a900460ff16816004015f6101000a81548160ff0219169083600481111561055957610558610c19565b5b0217905550905050600180548061057357610572611447565b5b600190038181905f5260205f2090600502015f8082015f9055600182015f61059b9190610ad3565b600282015f6105aa9190610ad3565b600382015f6105b99190610ad3565b600482015f6101000a81549060ff0219169055505090555050565b60035f806101000a81548160ff021916908360048111156105f8576105f7610c19565b5b0217905550565b5f8054906101000a900460ff1681565b6001818154811061061e575f80fd5b905f5260205f2090600502015f91509050805f01549080600101805461064390611050565b80601f016020809104026020016040519081016040528092919081815260200182805461066f90611050565b80156106ba5780601f10610691576101008083540402835291602001916106ba565b820191905f5260205f20905b81548152906001019060200180831161069d57829003601f168201915b5050505050908060020180546106cf90611050565b80601f01602080910402602001604051908101604052809291908181526020018280546106fb90611050565b80156107465780601f1061071d57610100808354040283529160200191610746565b820191905f5260205f20905b81548152906001019060200180831161072957829003601f168201915b50505050509080600301805461075b90611050565b80601f016020809104026020016040519081016040528092919081815260200182805461078790611050565b80156107d25780601f106107a9576101008083540402835291602001916107d2565b820191905f5260205f20905b8154815290600101906020018083116107b557829003601f168201915b505050505090806004015f9054906101000a900460ff16905085565b60016040518060a001604052808681526020018581526020018481526020018381526020015f600481111561082657610825610c19565b5b815250908060018154018082558091505060019003905f5260205f2090600502015f909190919091505f820151815f0155602082015181600101908161086c9190611474565b5060408201518160020190816108829190611474565b5060608201518160030190816108989190611474565b506080820151816004015f6101000a81548160ff021916908360048111156108c3576108c2610c19565b5b0217905550505050505050565b5f5b60018054905081101561096557600181815481106108f3576108f2610ff6565b5b905f5260205f2090600502015f015482036109585760026001828154811061091e5761091d610ff6565b5b905f5260205f2090600502016004015f6101000a81548160ff0219169083600481111561094e5761094d610c19565b5b0217905550610965565b80806001019150506108d2565b5050565b5f5b6001805490508110156109fd576001818154811061098c5761098b610ff6565b5b905f5260205f2090600502015f015482036109f05760018082815481106109b6576109b5610ff6565b5b905f5260205f2090600502016004015f6101000a81548160ff021916908360048111156109e6576109e5610c19565b5b02179055506109fd565b808060010191505061096b565b5050565b5f805f90505b600180549050811015610a535760018181548110610a2857610a27610ff6565b5b905f5260205f2090600502015f01548303610a465780915050610a8f565b8080600101915050610a07565b506040517f08c379a0000000000000000000000000000000000000000000000000000000008152600401610a869061158d565b60405180910390fd5b919050565b6040518060a001604052805f81526020016060815260200160608152602001606081526020015f6004811115610acd57610acc610c19565b5b81525090565b508054610adf90611050565b5f825580601f10610af05750610b0d565b601f0160209004905f5260205f2090810190610b0c9190610b10565b5b50565b5b80821115610b27575f815f905550600101610b11565b5090565b5f604051905090565b5f80fd5b5f80fd5b5f819050919050565b610b4e81610b3c565b8114610b58575f80fd5b50565b5f81359050610b6981610b45565b92915050565b5f60208284031215610b8457610b83610b34565b5b5f610b9184828501610b5b565b91505092915050565b610ba381610b3c565b82525050565b5f81519050919050565b5f82825260208201905092915050565b8281835e5f83830152505050565b5f601f19601f8301169050919050565b5f610beb82610ba9565b610bf58185610bb3565b9350610c05818560208601610bc3565b610c0e81610bd1565b840191505092915050565b7f4e487b71000000000000000000000000000000000000000000000000000000005f52602160045260245ffd5b60058110610c5757610c56610c19565b5b50565b5f819050610c6782610c46565b919050565b5f610c7682610c5a565b9050919050565b610c8681610c6c565b82525050565b5f60a083015f830151610ca15f860182610b9a565b5060208301518482036020860152610cb98282610be1565b91505060408301518482036040860152610cd38282610be1565b91505060608301518482036060860152610ced8282610be1565b9150506080830151610d026080860182610c7d565b508091505092915050565b5f6020820190508181035f830152610d258184610c8c565b905092915050565b610d3681610c6c565b82525050565b5f602082019050610d4f5f830184610d2d565b92915050565b610d5e81610b3c565b82525050565b5f82825260208201905092915050565b5f610d7e82610ba9565b610d888185610d64565b9350610d98818560208601610bc3565b610da181610bd1565b840191505092915050565b5f60a082019050610dbf5f830188610d55565b8181036020830152610dd18187610d74565b90508181036040830152610de58186610d74565b90508181036060830152610df98185610d74565b9050610e086080830184610d2d565b9695505050505050565b5f80fd5b5f80fd5b7f4e487b71000000000000000000000000000000000000000000000000000000005f52604160045260245ffd5b610e5082610bd1565b810181811067ffffffffffffffff82111715610e6f57610e6e610e1a565b5b80604052505050565b5f610e81610b2b565b9050610e8d8282610e47565b919050565b5f67ffffffffffffffff821115610eac57610eab610e1a565b5b610eb582610bd1565b9050602081019050919050565b828183375f83830152505050565b5f610ee2610edd84610e92565b610e78565b905082815260208101848484011115610efe57610efd610e16565b5b610f09848285610ec2565b509392505050565b5f82601f830112610f2557610f24610e12565b5b8135610f35848260208601610ed0565b91505092915050565b5f805f8060808587031215610f5657610f55610b34565b5b5f610f6387828801610b5b565b945050602085013567ffffffffffffffff811115610f8457610f83610b38565b5b610f9087828801610f11565b935050604085013567ffffffffffffffff811115610fb157610fb0610b38565b5b610fbd87828801610f11565b925050606085013567ffffffffffffffff811115610fde57610fdd610b38565b5b610fea87828801610f11565b91505092959194509250565b7f4e487b71000000000000000000000000000000000000000000000000000000005f52603260045260245ffd5b7f4e487b71000000000000000000000000000000000000000000000000000000005f52602260045260245ffd5b5f600282049050600182168061106757607f821691505b60208210810361107a57611079611023565b5b50919050565b7f55736572204e6f7420466f756e640000000000000000000000000000000000005f82015250565b5f6110b4600e83610d64565b91506110bf82611080565b602082019050919050565b5f6020820190508181035f8301526110e1816110a8565b9050919050565b7f55536572206e6f7420666f756e640000000000000000000000000000000000005f82015250565b5f61111c600e83610d64565b9150611127826110e8565b602082019050919050565b5f6020820190508181035f83015261114981611110565b9050919050565b7f4e487b71000000000000000000000000000000000000000000000000000000005f52601160045260245ffd5b5f61118782610b3c565b915061119283610b3c565b92508282039050818111156111aa576111a9611150565b5b92915050565b5f815490506111be81611050565b9050919050565b5f819050815f5260205f209050919050565b5f6020601f8301049050919050565b5f82821b905092915050565b5f600883026112217fffffffffffffffffffffffffffffffffffffffffffffffffffffffffffffffff826111e6565b61122b86836111e6565b95508019841693508086168417925050509392505050565b5f819050919050565b5f61126661126161125c84610b3c565b611243565b610b3c565b9050919050565b5f819050919050565b61127f8361124c565b61129361128b8261126d565b8484546111f2565b825550505050565b5f90565b6112a761129b565b6112b2818484611276565b505050565b5b818110156112d5576112ca5f8261129f565b6001810190506112b8565b5050565b601f82111561131a576112eb816111c5565b6112f4846111d7565b81016020851015611303578190505b61131761130f856111d7565b8301826112b7565b50505b505050565b5f82821c905092915050565b5f61133a5f198460080261131f565b1980831691505092915050565b5f611352838361132b565b9150826002028217905092915050565b818103611370575050611445565b611379826111b0565b67ffffffffffffffff81111561139257611391610e1a565b5b61139c8254611050565b6113a78282856112d9565b5f601f8311600181146113d4575f84156113c2578287015490505b6113cc8582611347565b86555061143e565b601f1984166113e2876111c5565b96506113ed866111c5565b5f5b82811015611414578489015482556001820191506001850194506020810190506113ef565b86831015611431578489015461142d601f89168261132b565b8355505b6001600288020188555050505b5050505050505b565b7f4e487b71000000000000000000000000000000000000000000000000000000005f52603160045260245ffd5b61147d82610ba9565b67ffffffffffffffff81111561149657611495610e1a565b5b6114a08254611050565b6114ab8282856112d9565b5f60209050601f8311600181146114dc575f84156114ca578287015190505b6114d48582611347565b86555061153b565b601f1984166114ea866111c5565b5f5b82811015611511578489015182556001820191506020850194506020810190506114ec565b8683101561152e578489015161152a601f89168261132b565b8355505b6001600288020188555050505b505050505050565b7f55736572206e6f7420666f756e640000000000000000000000000000000000005f82015250565b5f611577600e83610d64565b915061158282611543565b602082019050919050565b5f6020820190508181035f8301526115a48161156b565b905091905056fea2646970667358221220ed1a1027811db80f68416a9e7f1299f216125e76a59adde2384e03e2c2af652664736f6c634300081a0033",
			"opcodes": "PUSH1 0x80 PUSH1 0x40 MSTORE CALLVALUE DUP1 ISZERO PUSH1 0xE JUMPI PUSH0 DUP1 REVERT JUMPDEST POP PUSH0 DUP1 PUSH0 PUSH2 0x100 EXP DUP2 SLOAD DUP2 PUSH1 0xFF MUL NOT AND SWAP1 DUP4 PUSH1 0x4 DUP2 GT ISZERO PUSH1 0x2F JUMPI PUSH1 0x2E PUSH1 0x38 JUMP JUMPDEST JUMPDEST MUL OR SWAP1 SSTORE POP PUSH1 0x65 JUMP JUMPDEST PUSH32 0x4E487B7100000000000000000000000000000000000000000000000000000000 PUSH0 MSTORE PUSH1 0x21 PUSH1 0x4 MSTORE PUSH1 0x24 PUSH0 REVERT JUMPDEST PUSH2 0x15E1 DUP1 PUSH2 0x72 PUSH0 CODECOPY PUSH0 RETURN INVALID PUSH1 0x80 PUSH1 0x40 MSTORE CALLVALUE DUP1 ISZERO PUSH2 0xF JUMPI PUSH0 DUP1 REVERT JUMPDEST POP PUSH1 0x4 CALLDATASIZE LT PUSH2 0x86 JUMPI PUSH0 CALLDATALOAD PUSH1 0xE0 SHR DUP1 PUSH4 0x9F4216E8 GT PUSH2 0x59 JUMPI DUP1 PUSH4 0x9F4216E8 EQ PUSH2 0xFE JUMPI DUP1 PUSH4 0xAE534EC8 EQ PUSH2 0x132 JUMPI DUP1 PUSH4 0xB260C42A EQ PUSH2 0x14E JUMPI DUP1 PUSH4 0xD1CB3F32 EQ PUSH2 0x16A JUMPI PUSH2 0x86 JUMP JUMPDEST DUP1 PUSH4 0x31F01140 EQ PUSH2 0x8A JUMPI DUP1 PUSH4 0x38F14845 EQ PUSH2 0xBA JUMPI DUP1 PUSH4 0x4DC415DE EQ PUSH2 0xD6 JUMPI DUP1 PUSH4 0x89EC615D EQ PUSH2 0xE0 JUMPI JUMPDEST PUSH0 DUP1 REVERT JUMPDEST PUSH2 0xA4 PUSH1 0x4 DUP1 CALLDATASIZE SUB DUP2 ADD SWAP1 PUSH2 0x9F SWAP2 SWAP1 PUSH2 0xB6F JUMP JUMPDEST PUSH2 0x186 JUMP JUMPDEST PUSH1 0x40 MLOAD PUSH2 0xB1 SWAP2 SWAP1 PUSH2 0xD0D JUMP JUMPDEST PUSH1 0x40 MLOAD DUP1 SWAP2 SUB SWAP1 RETURN JUMPDEST PUSH2 0xD4 PUSH1 0x4 DUP1 CALLDATASIZE SUB DUP2 ADD SWAP1 PUSH2 0xCF SWAP2 SWAP1 PUSH2 0xB6F JUMP JUMPDEST PUSH2 0x43A JUMP JUMPDEST STOP JUMPDEST PUSH2 0xDE PUSH2 0x5D4 JUMP JUMPDEST STOP JUMPDEST PUSH2 0xE8 PUSH2 0x5FF JUMP JUMPDEST PUSH1 0x40 MLOAD PUSH2 0xF5 SWAP2 SWAP1 PUSH2 0xD3C JUMP JUMPDEST PUSH1 0x40 MLOAD DUP1 SWAP2 SUB SWAP1 RETURN JUMPDEST PUSH2 0x118 PUSH1 0x4 DUP1 CALLDATASIZE SUB DUP2 ADD SWAP1 PUSH2 0x113 SWAP2 SWAP1 PUSH2 0xB6F JUMP JUMPDEST PUSH2 0x60F JUMP JUMPDEST PUSH1 0x40 MLOAD PUSH2 0x129 SWAP6 SWAP5 SWAP4 SWAP3 SWAP2 SWAP1 PUSH2 0xDAC JUMP JUMPDEST PUSH1 0x40 MLOAD DUP1 SWAP2 SUB SWAP1 RETURN JUMPDEST PUSH2 0x14C PUSH1 0x4 DUP1 CALLDATASIZE SUB DUP2 ADD SWAP1 PUSH2 0x147 SWAP2 SWAP1 PUSH2 0xF3E JUMP JUMPDEST PUSH2 0x7EE JUMP JUMPDEST STOP JUMPDEST PUSH2 0x168 PUSH1 0x4 DUP1 CALLDATASIZE SUB DUP2 ADD SWAP1 PUSH2 0x163 SWAP2 SWAP1 PUSH2 0xB6F JUMP JUMPDEST PUSH2 0x8D0 JUMP JUMPDEST STOP JUMPDEST PUSH2 0x184 PUSH1 0x4 DUP1 CALLDATASIZE SUB DUP2 ADD SWAP1 PUSH2 0x17F SWAP2 SWAP1 PUSH2 0xB6F JUMP JUMPDEST PUSH2 0x969 JUMP JUMPDEST STOP JUMPDEST PUSH2 0x18E PUSH2 0xA94 JUMP JUMPDEST PUSH0 JUMPDEST PUSH1 0x1 DUP1 SLOAD SWAP1 POP DUP2 LT ISZERO PUSH2 0x3F9 JUMPI DUP3 PUSH1 0x1 DUP3 DUP2 SLOAD DUP2 LT PUSH2 0x1B2 JUMPI PUSH2 0x1B1 PUSH2 0xFF6 JUMP JUMPDEST JUMPDEST SWAP1 PUSH0 MSTORE PUSH1 0x20 PUSH0 KECCAK256 SWAP1 PUSH1 0x5 MUL ADD PUSH0 ADD SLOAD SUB PUSH2 0x3EC JUMPI PUSH1 0x1 DUP2 DUP2 SLOAD DUP2 LT PUSH2 0x1DA JUMPI PUSH2 0x1D9 PUSH2 0xFF6 JUMP JUMPDEST JUMPDEST SWAP1 PUSH0 MSTORE PUSH1 0x20 PUSH0 KECCAK256 SWAP1 PUSH1 0x5 MUL ADD PUSH1 0x40 MLOAD DUP1 PUSH1 0xA0 ADD PUSH1 0x40 MSTORE SWAP1 DUP2 PUSH0 DUP3 ADD SLOAD DUP2 MSTORE PUSH1 0x20 ADD PUSH1 0x1 DUP3 ADD DUP1 SLOAD PUSH2 0x20A SWAP1 PUSH2 0x1050 JUMP JUMPDEST DUP1 PUSH1 0x1F ADD PUSH1 0x20 DUP1 SWAP2 DIV MUL PUSH1 0x20 ADD PUSH1 0x40 MLOAD SWAP1 DUP2 ADD PUSH1 0x40 MSTORE DUP1 SWAP3 SWAP2 SWAP1 DUP2 DUP2 MSTORE PUSH1 0x20 ADD DUP3 DUP1 SLOAD PUSH2 0x236 SWAP1 PUSH2 0x1050 JUMP JUMPDEST DUP1 ISZERO PUSH2 0x281 JUMPI DUP1 PUSH1 0x1F LT PUSH2 0x258 JUMPI PUSH2 0x100 DUP1 DUP4 SLOAD DIV MUL DUP4 MSTORE SWAP2 PUSH1 0x20 ADD SWAP2 PUSH2 0x281 JUMP JUMPDEST DUP3 ADD SWAP2 SWAP1 PUSH0 MSTORE PUSH1 0x20 PUSH0 KECCAK256 SWAP1 JUMPDEST DUP2 SLOAD DUP2 MSTORE SWAP1 PUSH1 0x1 ADD SWAP1 PUSH1 0x20 ADD DUP1 DUP4 GT PUSH2 0x264 JUMPI DUP3 SWAP1 SUB PUSH1 0x1F AND DUP3 ADD SWAP2 JUMPDEST POP POP POP POP POP DUP2 MSTORE PUSH1 0x20 ADD PUSH1 0x2 DUP3 ADD DUP1 SLOAD PUSH2 0x29A SWAP1 PUSH2 0x1050 JUMP JUMPDEST DUP1 PUSH1 0x1F ADD PUSH1 0x20 DUP1 SWAP2 DIV MUL PUSH1 0x20 ADD PUSH1 0x40 MLOAD SWAP1 DUP2 ADD PUSH1 0x40 MSTORE DUP1 SWAP3 SWAP2 SWAP1 DUP2 DUP2 MSTORE PUSH1 0x20 ADD DUP3 DUP1 SLOAD PUSH2 0x2C6 SWAP1 PUSH2 0x1050 JUMP JUMPDEST DUP1 ISZERO PUSH2 0x311 JUMPI DUP1 PUSH1 0x1F LT PUSH2 0x2E8 JUMPI PUSH2 0x100 DUP1 DUP4 SLOAD DIV MUL DUP4 MSTORE SWAP2 PUSH1 0x20 ADD SWAP2 PUSH2 0x311 JUMP JUMPDEST DUP3 ADD SWAP2 SWAP1 PUSH0 MSTORE PUSH1 0x20 PUSH0 KECCAK256 SWAP1 JUMPDEST DUP2 SLOAD DUP2 MSTORE SWAP1 PUSH1 0x1 ADD SWAP1 PUSH1 0x20 ADD DUP1 DUP4 GT PUSH2 0x2F4 JUMPI DUP3 SWAP1 SUB PUSH1 0x1F AND DUP3 ADD SWAP2 JUMPDEST POP POP POP POP POP DUP2 MSTORE PUSH1 0x20 ADD PUSH1 0x3 DUP3 ADD DUP1 SLOAD PUSH2 0x32A SWAP1 PUSH2 0x1050 JUMP JUMPDEST DUP1 PUSH1 0x1F ADD PUSH1 0x20 DUP1 SWAP2 DIV MUL PUSH1 0x20 ADD PUSH1 0x40 MLOAD SWAP1 DUP2 ADD PUSH1 0x40 MSTORE DUP1 SWAP3 SWAP2 SWAP1 DUP2 DUP2 MSTORE PUSH1 0x20 ADD DUP3 DUP1 SLOAD PUSH2 0x356 SWAP1 PUSH2 0x1050 JUMP JUMPDEST DUP1 ISZERO PUSH2 0x3A1 JUMPI DUP1 PUSH1 0x1F LT PUSH2 0x378 JUMPI PUSH2 0x100 DUP1 DUP4 SLOAD DIV MUL DUP4 MSTORE SWAP2 PUSH1 0x20 ADD SWAP2 PUSH2 0x3A1 JUMP JUMPDEST DUP3 ADD SWAP2 SWAP1 PUSH0 MSTORE PUSH1 0x20 PUSH0 KECCAK256 SWAP1 JUMPDEST DUP2 SLOAD DUP2 MSTORE SWAP1 PUSH1 0x1 ADD SWAP1 PUSH1 0x20 ADD DUP1 DUP4 GT PUSH2 0x384 JUMPI DUP3 SWAP1 SUB PUSH1 0x1F AND DUP3 ADD SWAP2 JUMPDEST POP POP POP POP POP DUP2 MSTORE PUSH1 0x20 ADD PUSH1 0x4 DUP3 ADD PUSH0 SWAP1 SLOAD SWAP1 PUSH2 0x100 EXP SWAP1 DIV PUSH1 0xFF AND PUSH1 0x4 DUP2 GT ISZERO PUSH2 0x3CE JUMPI PUSH2 0x3CD PUSH2 0xC19 JUMP JUMPDEST JUMPDEST PUSH1 0x4 DUP2 GT ISZERO PUSH2 0x3E0 JUMPI PUSH2 0x3DF PUSH2 0xC19 JUMP JUMPDEST JUMPDEST DUP2 MSTORE POP POP SWAP2 POP POP PUSH2 0x435 JUMP JUMPDEST DUP1 DUP1 PUSH1 0x1 ADD SWAP2 POP POP PUSH2 0x190 JUMP JUMPDEST POP PUSH1 0x40 MLOAD PUSH32 0x8C379A000000000000000000000000000000000000000000000000000000000 DUP2 MSTORE PUSH1 0x4 ADD PUSH2 0x42C SWAP1 PUSH2 0x10CA JUMP JUMPDEST PUSH1 0x40 MLOAD DUP1 SWAP2 SUB SWAP1 REVERT JUMPDEST SWAP2 SWAP1 POP JUMP JUMPDEST PUSH0 PUSH2 0x444 DUP3 PUSH2 0xA01 JUMP JUMPDEST SWAP1 POP PUSH1 0x1 DUP1 SLOAD SWAP1 POP DUP2 LT PUSH2 0x48D JUMPI PUSH1 0x40 MLOAD PUSH32 0x8C379A000000000000000000000000000000000000000000000000000000000 DUP2 MSTORE PUSH1 0x4 ADD PUSH2 0x484 SWAP1 PUSH2 0x1132 JUMP JUMPDEST PUSH1 0x40 MLOAD DUP1 SWAP2 SUB SWAP1 REVERT JUMPDEST PUSH1 0x1 DUP1 DUP1 DUP1 SLOAD SWAP1 POP PUSH2 0x49F SWAP2 SWAP1 PUSH2 0x117D JUMP JUMPDEST DUP2 SLOAD DUP2 LT PUSH2 0x4B0 JUMPI PUSH2 0x4AF PUSH2 0xFF6 JUMP JUMPDEST JUMPDEST SWAP1 PUSH0 MSTORE PUSH1 0x20 PUSH0 KECCAK256 SWAP1 PUSH1 0x5 MUL ADD PUSH1 0x1 DUP3 DUP2 SLOAD DUP2 LT PUSH2 0x4D0 JUMPI PUSH2 0x4CF PUSH2 0xFF6 JUMP JUMPDEST JUMPDEST SWAP1 PUSH0 MSTORE PUSH1 0x20 PUSH0 KECCAK256 SWAP1 PUSH1 0x5 MUL ADD PUSH0 DUP3 ADD SLOAD DUP2 PUSH0 ADD SSTORE PUSH1 0x1 DUP3 ADD DUP2 PUSH1 0x1 ADD SWAP1 DUP2 PUSH2 0x4F8 SWAP2 SWAP1 PUSH2 0x1362 JUMP JUMPDEST POP PUSH1 0x2 DUP3 ADD DUP2 PUSH1 0x2 ADD SWAP1 DUP2 PUSH2 0x50D SWAP2 SWAP1 PUSH2 0x1362 JUMP JUMPDEST POP PUSH1 0x3 DUP3 ADD DUP2 PUSH1 0x3 ADD SWAP1 DUP2 PUSH2 0x522 SWAP2 SWAP1 PUSH2 0x1362 JUMP JUMPDEST POP PUSH1 0x4 DUP3 ADD PUSH0 SWAP1 SLOAD SWAP1 PUSH2 0x100 EXP SWAP1 DIV PUSH1 0xFF AND DUP2 PUSH1 0x4 ADD PUSH0 PUSH2 0x100 EXP DUP2 SLOAD DUP2 PUSH1 0xFF MUL NOT AND SWAP1 DUP4 PUSH1 0x4 DUP2 GT ISZERO PUSH2 0x559 JUMPI PUSH2 0x558 PUSH2 0xC19 JUMP JUMPDEST JUMPDEST MUL OR SWAP1 SSTORE POP SWAP1 POP POP PUSH1 0x1 DUP1 SLOAD DUP1 PUSH2 0x573 JUMPI PUSH2 0x572 PUSH2 0x1447 JUMP JUMPDEST JUMPDEST PUSH1 0x1 SWAP1 SUB DUP2 DUP2 SWAP1 PUSH0 MSTORE PUSH1 0x20 PUSH0 KECCAK256 SWAP1 PUSH1 0x5 MUL ADD PUSH0 DUP1 DUP3 ADD PUSH0 SWAP1 SSTORE PUSH1 0x1 DUP3 ADD PUSH0 PUSH2 0x59B SWAP2 SWAP1 PUSH2 0xAD3 JUMP JUMPDEST PUSH1 0x2 DUP3 ADD PUSH0 PUSH2 0x5AA SWAP2 SWAP1 PUSH2 0xAD3 JUMP JUMPDEST PUSH1 0x3 DUP3 ADD PUSH0 PUSH2 0x5B9 SWAP2 SWAP1 PUSH2 0xAD3 JUMP JUMPDEST PUSH1 0x4 DUP3 ADD PUSH0 PUSH2 0x100 EXP DUP2 SLOAD SWAP1 PUSH1 0xFF MUL NOT AND SWAP1 SSTORE POP POP SWAP1 SSTORE POP POP JUMP JUMPDEST PUSH1 0x3 PUSH0 DUP1 PUSH2 0x100 EXP DUP2 SLOAD DUP2 PUSH1 0xFF MUL NOT AND SWAP1 DUP4 PUSH1 0x4 DUP2 GT ISZERO PUSH2 0x5F8 JUMPI PUSH2 0x5F7 PUSH2 0xC19 JUMP JUMPDEST JUMPDEST MUL OR SWAP1 SSTORE POP JUMP JUMPDEST PUSH0 DUP1 SLOAD SWAP1 PUSH2 0x100 EXP SWAP1 DIV PUSH1 0xFF AND DUP2 JUMP JUMPDEST PUSH1 0x1 DUP2 DUP2 SLOAD DUP2 LT PUSH2 0x61E JUMPI PUSH0 DUP1 REVERT JUMPDEST SWAP1 PUSH0 MSTORE PUSH1 0x20 PUSH0 KECCAK256 SWAP1 PUSH1 0x5 MUL ADD PUSH0 SWAP2 POP SWAP1 POP DUP1 PUSH0 ADD SLOAD SWAP1 DUP1 PUSH1 0x1 ADD DUP1 SLOAD PUSH2 0x643 SWAP1 PUSH2 0x1050 JUMP JUMPDEST DUP1 PUSH1 0x1F ADD PUSH1 0x20 DUP1 SWAP2 DIV MUL PUSH1 0x20 ADD PUSH1 0x40 MLOAD SWAP1 DUP2 ADD PUSH1 0x40 MSTORE DUP1 SWAP3 SWAP2 SWAP1 DUP2 DUP2 MSTORE PUSH1 0x20 ADD DUP3 DUP1 SLOAD PUSH2 0x66F SWAP1 PUSH2 0x1050 JUMP JUMPDEST DUP1 ISZERO PUSH2 0x6BA JUMPI DUP1 PUSH1 0x1F LT PUSH2 0x691 JUMPI PUSH2 0x100 DUP1 DUP4 SLOAD DIV MUL DUP4 MSTORE SWAP2 PUSH1 0x20 ADD SWAP2 PUSH2 0x6BA JUMP JUMPDEST DUP3 ADD SWAP2 SWAP1 PUSH0 MSTORE PUSH1 0x20 PUSH0 KECCAK256 SWAP1 JUMPDEST DUP2 SLOAD DUP2 MSTORE SWAP1 PUSH1 0x1 ADD SWAP1 PUSH1 0x20 ADD DUP1 DUP4 GT PUSH2 0x69D JUMPI DUP3 SWAP1 SUB PUSH1 0x1F AND DUP3 ADD SWAP2 JUMPDEST POP POP POP POP POP SWAP1 DUP1 PUSH1 0x2 ADD DUP1 SLOAD PUSH2 0x6CF SWAP1 PUSH2 0x1050 JUMP JUMPDEST DUP1 PUSH1 0x1F ADD PUSH1 0x20 DUP1 SWAP2 DIV MUL PUSH1 0x20 ADD PUSH1 0x40 MLOAD SWAP1 DUP2 ADD PUSH1 0x40 MSTORE DUP1 SWAP3 SWAP2 SWAP1 DUP2 DUP2 MSTORE PUSH1 0x20 ADD DUP3 DUP1 SLOAD PUSH2 0x6FB SWAP1 PUSH2 0x1050 JUMP JUMPDEST DUP1 ISZERO PUSH2 0x746 JUMPI DUP1 PUSH1 0x1F LT PUSH2 0x71D JUMPI PUSH2 0x100 DUP1 DUP4 SLOAD DIV MUL DUP4 MSTORE SWAP2 PUSH1 0x20 ADD SWAP2 PUSH2 0x746 JUMP JUMPDEST DUP3 ADD SWAP2 SWAP1 PUSH0 MSTORE PUSH1 0x20 PUSH0 KECCAK256 SWAP1 JUMPDEST DUP2 SLOAD DUP2 MSTORE SWAP1 PUSH1 0x1 ADD SWAP1 PUSH1 0x20 ADD DUP1 DUP4 GT PUSH2 0x729 JUMPI DUP3 SWAP1 SUB PUSH1 0x1F AND DUP3 ADD SWAP2 JUMPDEST POP POP POP POP POP SWAP1 DUP1 PUSH1 0x3 ADD DUP1 SLOAD PUSH2 0x75B SWAP1 PUSH2 0x1050 JUMP JUMPDEST DUP1 PUSH1 0x1F ADD PUSH1 0x20 DUP1 SWAP2 DIV MUL PUSH1 0x20 ADD PUSH1 0x40 MLOAD SWAP1 DUP2 ADD PUSH1 0x40 MSTORE DUP1 SWAP3 SWAP2 SWAP1 DUP2 DUP2 MSTORE PUSH1 0x20 ADD DUP3 DUP1 SLOAD PUSH2 0x787 SWAP1 PUSH2 0x1050 JUMP JUMPDEST DUP1 ISZERO PUSH2 0x7D2 JUMPI DUP1 PUSH1 0x1F LT PUSH2 0x7A9 JUMPI PUSH2 0x100 DUP1 DUP4 SLOAD DIV MUL DUP4 MSTORE SWAP2 PUSH1 0x20 ADD SWAP2 PUSH2 0x7D2 JUMP JUMPDEST DUP3 ADD SWAP2 SWAP1 PUSH0 MSTORE PUSH1 0x20 PUSH0 KECCAK256 SWAP1 JUMPDEST DUP2 SLOAD DUP2 MSTORE SWAP1 PUSH1 0x1 ADD SWAP1 PUSH1 0x20 ADD DUP1 DUP4 GT PUSH2 0x7B5 JUMPI DUP3 SWAP1 SUB PUSH1 0x1F AND DUP3 ADD SWAP2 JUMPDEST POP POP POP POP POP SWAP1 DUP1 PUSH1 0x4 ADD PUSH0 SWAP1 SLOAD SWAP1 PUSH2 0x100 EXP SWAP1 DIV PUSH1 0xFF AND SWAP1 POP DUP6 JUMP JUMPDEST PUSH1 0x1 PUSH1 0x40 MLOAD DUP1 PUSH1 0xA0 ADD PUSH1 0x40 MSTORE DUP1 DUP7 DUP2 MSTORE PUSH1 0x20 ADD DUP6 DUP2 MSTORE PUSH1 0x20 ADD DUP5 DUP2 MSTORE PUSH1 0x20 ADD DUP4 DUP2 MSTORE PUSH1 0x20 ADD PUSH0 PUSH1 0x4 DUP2 GT ISZERO PUSH2 0x826 JUMPI PUSH2 0x825 PUSH2 0xC19 JUMP JUMPDEST JUMPDEST DUP2 MSTORE POP SWAP1 DUP1 PUSH1 0x1 DUP2 SLOAD ADD DUP1 DUP3 SSTORE DUP1 SWAP2 POP POP PUSH1 0x1 SWAP1 SUB SWAP1 PUSH0 MSTORE PUSH1 0x20 PUSH0 KECCAK256 SWAP1 PUSH1 0x5 MUL ADD PUSH0 SWAP1 SWAP2 SWAP1 SWAP2 SWAP1 SWAP2 POP PUSH0 DUP3 ADD MLOAD DUP2 PUSH0 ADD SSTORE PUSH1 0x20 DUP3 ADD MLOAD DUP2 PUSH1 0x1 ADD SWAP1 DUP2 PUSH2 0x86C SWAP2 SWAP1 PUSH2 0x1474 JUMP JUMPDEST POP PUSH1 0x40 DUP3 ADD MLOAD DUP2 PUSH1 0x2 ADD SWAP1 DUP2 PUSH2 0x882 SWAP2 SWAP1 PUSH2 0x1474 JUMP JUMPDEST POP PUSH1 0x60 DUP3 ADD MLOAD DUP2 PUSH1 0x3 ADD SWAP1 DUP2 PUSH2 0x898 SWAP2 SWAP1 PUSH2 0x1474 JUMP JUMPDEST POP PUSH1 0x80 DUP3 ADD MLOAD DUP2 PUSH1 0x4 ADD PUSH0 PUSH2 0x100 EXP DUP2 SLOAD DUP2 PUSH1 0xFF MUL NOT AND SWAP1 DUP4 PUSH1 0x4 DUP2 GT ISZERO PUSH2 0x8C3 JUMPI PUSH2 0x8C2 PUSH2 0xC19 JUMP JUMPDEST JUMPDEST MUL OR SWAP1 SSTORE POP POP POP POP POP POP POP JUMP JUMPDEST PUSH0 JUMPDEST PUSH1 0x1 DUP1 SLOAD SWAP1 POP DUP2 LT ISZERO PUSH2 0x965 JUMPI PUSH1 0x1 DUP2 DUP2 SLOAD DUP2 LT PUSH2 0x8F3 JUMPI PUSH2 0x8F2 PUSH2 0xFF6 JUMP JUMPDEST JUMPDEST SWAP1 PUSH0 MSTORE PUSH1 0x20 PUSH0 KECCAK256 SWAP1 PUSH1 0x5 MUL ADD PUSH0 ADD SLOAD DUP3 SUB PUSH2 0x958 JUMPI PUSH1 0x2 PUSH1 0x1 DUP3 DUP2 SLOAD DUP2 LT PUSH2 0x91E JUMPI PUSH2 0x91D PUSH2 0xFF6 JUMP JUMPDEST JUMPDEST SWAP1 PUSH0 MSTORE PUSH1 0x20 PUSH0 KECCAK256 SWAP1 PUSH1 0x5 MUL ADD PUSH1 0x4 ADD PUSH0 PUSH2 0x100 EXP DUP2 SLOAD DUP2 PUSH1 0xFF MUL NOT AND SWAP1 DUP4 PUSH1 0x4 DUP2 GT ISZERO PUSH2 0x94E JUMPI PUSH2 0x94D PUSH2 0xC19 JUMP JUMPDEST JUMPDEST MUL OR SWAP1 SSTORE POP PUSH2 0x965 JUMP JUMPDEST DUP1 DUP1 PUSH1 0x1 ADD SWAP2 POP POP PUSH2 0x8D2 JUMP JUMPDEST POP POP JUMP JUMPDEST PUSH0 JUMPDEST PUSH1 0x1 DUP1 SLOAD SWAP1 POP DUP2 LT ISZERO PUSH2 0x9FD JUMPI PUSH1 0x1 DUP2 DUP2 SLOAD DUP2 LT PUSH2 0x98C JUMPI PUSH2 0x98B PUSH2 0xFF6 JUMP JUMPDEST JUMPDEST SWAP1 PUSH0 MSTORE PUSH1 0x20 PUSH0 KECCAK256 SWAP1 PUSH1 0x5 MUL ADD PUSH0 ADD SLOAD DUP3 SUB PUSH2 0x9F0 JUMPI PUSH1 0x1 DUP1 DUP3 DUP2 SLOAD DUP2 LT PUSH2 0x9B6 JUMPI PUSH2 0x9B5 PUSH2 0xFF6 JUMP JUMPDEST JUMPDEST SWAP1 PUSH0 MSTORE PUSH1 0x20 PUSH0 KECCAK256 SWAP1 PUSH1 0x5 MUL ADD PUSH1 0x4 ADD PUSH0 PUSH2 0x100 EXP DUP2 SLOAD DUP2 PUSH1 0xFF MUL NOT AND SWAP1 DUP4 PUSH1 0x4 DUP2 GT ISZERO PUSH2 0x9E6 JUMPI PUSH2 0x9E5 PUSH2 0xC19 JUMP JUMPDEST JUMPDEST MUL OR SWAP1 SSTORE POP PUSH2 0x9FD JUMP JUMPDEST DUP1 DUP1 PUSH1 0x1 ADD SWAP2 POP POP PUSH2 0x96B JUMP JUMPDEST POP POP JUMP JUMPDEST PUSH0 DUP1 PUSH0 SWAP1 POP JUMPDEST PUSH1 0x1 DUP1 SLOAD SWAP1 POP DUP2 LT ISZERO PUSH2 0xA53 JUMPI PUSH1 0x1 DUP2 DUP2 SLOAD DUP2 LT PUSH2 0xA28 JUMPI PUSH2 0xA27 PUSH2 0xFF6 JUMP JUMPDEST JUMPDEST SWAP1 PUSH0 MSTORE PUSH1 0x20 PUSH0 KECCAK256 SWAP1 PUSH1 0x5 MUL ADD PUSH0 ADD SLOAD DUP4 SUB PUSH2 0xA46 JUMPI DUP1 SWAP2 POP POP PUSH2 0xA8F JUMP JUMPDEST DUP1 DUP1 PUSH1 0x1 ADD SWAP2 POP POP PUSH2 0xA07 JUMP JUMPDEST POP PUSH1 0x40 MLOAD PUSH32 0x8C379A000000000000000000000000000000000000000000000000000000000 DUP2 MSTORE PUSH1 0x4 ADD PUSH2 0xA86 SWAP1 PUSH2 0x158D JUMP JUMPDEST PUSH1 0x40 MLOAD DUP1 SWAP2 SUB SWAP1 REVERT JUMPDEST SWAP2 SWAP1 POP JUMP JUMPDEST PUSH1 0x40 MLOAD DUP1 PUSH1 0xA0 ADD PUSH1 0x40 MSTORE DUP1 PUSH0 DUP2 MSTORE PUSH1 0x20 ADD PUSH1 0x60 DUP2 MSTORE PUSH1 0x20 ADD PUSH1 0x60 DUP2 MSTORE PUSH1 0x20 ADD PUSH1 0x60 DUP2 MSTORE PUSH1 0x20 ADD PUSH0 PUSH1 0x4 DUP2 GT ISZERO PUSH2 0xACD JUMPI PUSH2 0xACC PUSH2 0xC19 JUMP JUMPDEST JUMPDEST DUP2 MSTORE POP SWAP1 JUMP JUMPDEST POP DUP1 SLOAD PUSH2 0xADF SWAP1 PUSH2 0x1050 JUMP JUMPDEST PUSH0 DUP3 SSTORE DUP1 PUSH1 0x1F LT PUSH2 0xAF0 JUMPI POP PUSH2 0xB0D JUMP JUMPDEST PUSH1 0x1F ADD PUSH1 0x20 SWAP1 DIV SWAP1 PUSH0 MSTORE PUSH1 0x20 PUSH0 KECCAK256 SWAP1 DUP2 ADD SWAP1 PUSH2 0xB0C SWAP2 SWAP1 PUSH2 0xB10 JUMP JUMPDEST JUMPDEST POP JUMP JUMPDEST JUMPDEST DUP1 DUP3 GT ISZERO PUSH2 0xB27 JUMPI PUSH0 DUP2 PUSH0 SWAP1 SSTORE POP PUSH1 0x1 ADD PUSH2 0xB11 JUMP JUMPDEST POP SWAP1 JUMP JUMPDEST PUSH0 PUSH1 0x40 MLOAD SWAP1 POP SWAP1 JUMP JUMPDEST PUSH0 DUP1 REVERT JUMPDEST PUSH0 DUP1 REVERT JUMPDEST PUSH0 DUP2 SWAP1 POP SWAP2 SWAP1 POP JUMP JUMPDEST PUSH2 0xB4E DUP2 PUSH2 0xB3C JUMP JUMPDEST DUP2 EQ PUSH2 0xB58 JUMPI PUSH0 DUP1 REVERT JUMPDEST POP JUMP JUMPDEST PUSH0 DUP2 CALLDATALOAD SWAP1 POP PUSH2 0xB69 DUP2 PUSH2 0xB45 JUMP JUMPDEST SWAP3 SWAP2 POP POP JUMP JUMPDEST PUSH0 PUSH1 0x20 DUP3 DUP5 SUB SLT ISZERO PUSH2 0xB84 JUMPI PUSH2 0xB83 PUSH2 0xB34 JUMP JUMPDEST JUMPDEST PUSH0 PUSH2 0xB91 DUP5 DUP3 DUP6 ADD PUSH2 0xB5B JUMP JUMPDEST SWAP2 POP POP SWAP3 SWAP2 POP POP JUMP JUMPDEST PUSH2 0xBA3 DUP2 PUSH2 0xB3C JUMP JUMPDEST DUP3 MSTORE POP POP JUMP JUMPDEST PUSH0 DUP2 MLOAD SWAP1 POP SWAP2 SWAP1 POP JUMP JUMPDEST PUSH0 DUP3 DUP3 MSTORE PUSH1 0x20 DUP3 ADD SWAP1 POP SWAP3 SWAP2 POP POP JUMP JUMPDEST DUP3 DUP2 DUP4 MCOPY PUSH0 DUP4 DUP4 ADD MSTORE POP POP POP JUMP JUMPDEST PUSH0 PUSH1 0x1F NOT PUSH1 0x1F DUP4 ADD AND SWAP1 POP SWAP2 SWAP1 POP JUMP JUMPDEST PUSH0 PUSH2 0xBEB DUP3 PUSH2 0xBA9 JUMP JUMPDEST PUSH2 0xBF5 DUP2 DUP6 PUSH2 0xBB3 JUMP JUMPDEST SWAP4 POP PUSH2 0xC05 DUP2 DUP6 PUSH1 0x20 DUP7 ADD PUSH2 0xBC3 JUMP JUMPDEST PUSH2 0xC0E DUP2 PUSH2 0xBD1 JUMP JUMPDEST DUP5 ADD SWAP2 POP POP SWAP3 SWAP2 POP POP JUMP JUMPDEST PUSH32 0x4E487B7100000000000000000000000000000000000000000000000000000000 PUSH0 MSTORE PUSH1 0x21 PUSH1 0x4 MSTORE PUSH1 0x24 PUSH0 REVERT JUMPDEST PUSH1 0x5 DUP2 LT PUSH2 0xC57 JUMPI PUSH2 0xC56 PUSH2 0xC19 JUMP JUMPDEST JUMPDEST POP JUMP JUMPDEST PUSH0 DUP2 SWAP1 POP PUSH2 0xC67 DUP3 PUSH2 0xC46 JUMP JUMPDEST SWAP2 SWAP1 POP JUMP JUMPDEST PUSH0 PUSH2 0xC76 DUP3 PUSH2 0xC5A JUMP JUMPDEST SWAP1 POP SWAP2 SWAP1 POP JUMP JUMPDEST PUSH2 0xC86 DUP2 PUSH2 0xC6C JUMP JUMPDEST DUP3 MSTORE POP POP JUMP JUMPDEST PUSH0 PUSH1 0xA0 DUP4 ADD PUSH0 DUP4 ADD MLOAD PUSH2 0xCA1 PUSH0 DUP7 ADD DUP3 PUSH2 0xB9A JUMP JUMPDEST POP PUSH1 0x20 DUP4 ADD MLOAD DUP5 DUP3 SUB PUSH1 0x20 DUP7 ADD MSTORE PUSH2 0xCB9 DUP3 DUP3 PUSH2 0xBE1 JUMP JUMPDEST SWAP2 POP POP PUSH1 0x40 DUP4 ADD MLOAD DUP5 DUP3 SUB PUSH1 0x40 DUP7 ADD MSTORE PUSH2 0xCD3 DUP3 DUP3 PUSH2 0xBE1 JUMP JUMPDEST SWAP2 POP POP PUSH1 0x60 DUP4 ADD MLOAD DUP5 DUP3 SUB PUSH1 0x60 DUP7 ADD MSTORE PUSH2 0xCED DUP3 DUP3 PUSH2 0xBE1 JUMP JUMPDEST SWAP2 POP POP PUSH1 0x80 DUP4 ADD MLOAD PUSH2 0xD02 PUSH1 0x80 DUP7 ADD DUP3 PUSH2 0xC7D JUMP JUMPDEST POP DUP1 SWAP2 POP POP SWAP3 SWAP2 POP POP JUMP JUMPDEST PUSH0 PUSH1 0x20 DUP3 ADD SWAP1 POP DUP2 DUP2 SUB PUSH0 DUP4 ADD MSTORE PUSH2 0xD25 DUP2 DUP5 PUSH2 0xC8C JUMP JUMPDEST SWAP1 POP SWAP3 SWAP2 POP POP JUMP JUMPDEST PUSH2 0xD36 DUP2 PUSH2 0xC6C JUMP JUMPDEST DUP3 MSTORE POP POP JUMP JUMPDEST PUSH0 PUSH1 0x20 DUP3 ADD SWAP1 POP PUSH2 0xD4F PUSH0 DUP4 ADD DUP5 PUSH2 0xD2D JUMP JUMPDEST SWAP3 SWAP2 POP POP JUMP JUMPDEST PUSH2 0xD5E DUP2 PUSH2 0xB3C JUMP JUMPDEST DUP3 MSTORE POP POP JUMP JUMPDEST PUSH0 DUP3 DUP3 MSTORE PUSH1 0x20 DUP3 ADD SWAP1 POP SWAP3 SWAP2 POP POP JUMP JUMPDEST PUSH0 PUSH2 0xD7E DUP3 PUSH2 0xBA9 JUMP JUMPDEST PUSH2 0xD88 DUP2 DUP6 PUSH2 0xD64 JUMP JUMPDEST SWAP4 POP PUSH2 0xD98 DUP2 DUP6 PUSH1 0x20 DUP7 ADD PUSH2 0xBC3 JUMP JUMPDEST PUSH2 0xDA1 DUP2 PUSH2 0xBD1 JUMP JUMPDEST DUP5 ADD SWAP2 POP POP SWAP3 SWAP2 POP POP JUMP JUMPDEST PUSH0 PUSH1 0xA0 DUP3 ADD SWAP1 POP PUSH2 0xDBF PUSH0 DUP4 ADD DUP9 PUSH2 0xD55 JUMP JUMPDEST DUP2 DUP2 SUB PUSH1 0x20 DUP4 ADD MSTORE PUSH2 0xDD1 DUP2 DUP8 PUSH2 0xD74 JUMP JUMPDEST SWAP1 POP DUP2 DUP2 SUB PUSH1 0x40 DUP4 ADD MSTORE PUSH2 0xDE5 DUP2 DUP7 PUSH2 0xD74 JUMP JUMPDEST SWAP1 POP DUP2 DUP2 SUB PUSH1 0x60 DUP4 ADD MSTORE PUSH2 0xDF9 DUP2 DUP6 PUSH2 0xD74 JUMP JUMPDEST SWAP1 POP PUSH2 0xE08 PUSH1 0x80 DUP4 ADD DUP5 PUSH2 0xD2D JUMP JUMPDEST SWAP7 SWAP6 POP POP POP POP POP POP JUMP JUMPDEST PUSH0 DUP1 REVERT JUMPDEST PUSH0 DUP1 REVERT JUMPDEST PUSH32 0x4E487B7100000000000000000000000000000000000000000000000000000000 PUSH0 MSTORE PUSH1 0x41 PUSH1 0x4 MSTORE PUSH1 0x24 PUSH0 REVERT JUMPDEST PUSH2 0xE50 DUP3 PUSH2 0xBD1 JUMP JUMPDEST DUP2 ADD DUP2 DUP2 LT PUSH8 0xFFFFFFFFFFFFFFFF DUP3 GT OR ISZERO PUSH2 0xE6F JUMPI PUSH2 0xE6E PUSH2 0xE1A JUMP JUMPDEST JUMPDEST DUP1 PUSH1 0x40 MSTORE POP POP POP JUMP JUMPDEST PUSH0 PUSH2 0xE81 PUSH2 0xB2B JUMP JUMPDEST SWAP1 POP PUSH2 0xE8D DUP3 DUP3 PUSH2 0xE47 JUMP JUMPDEST SWAP2 SWAP1 POP JUMP JUMPDEST PUSH0 PUSH8 0xFFFFFFFFFFFFFFFF DUP3 GT ISZERO PUSH2 0xEAC JUMPI PUSH2 0xEAB PUSH2 0xE1A JUMP JUMPDEST JUMPDEST PUSH2 0xEB5 DUP3 PUSH2 0xBD1 JUMP JUMPDEST SWAP1 POP PUSH1 0x20 DUP2 ADD SWAP1 POP SWAP2 SWAP1 POP JUMP JUMPDEST DUP3 DUP2 DUP4 CALLDATACOPY PUSH0 DUP4 DUP4 ADD MSTORE POP POP POP JUMP JUMPDEST PUSH0 PUSH2 0xEE2 PUSH2 0xEDD DUP5 PUSH2 0xE92 JUMP JUMPDEST PUSH2 0xE78 JUMP JUMPDEST SWAP1 POP DUP3 DUP2 MSTORE PUSH1 0x20 DUP2 ADD DUP5 DUP5 DUP5 ADD GT ISZERO PUSH2 0xEFE JUMPI PUSH2 0xEFD PUSH2 0xE16 JUMP JUMPDEST JUMPDEST PUSH2 0xF09 DUP5 DUP3 DUP6 PUSH2 0xEC2 JUMP JUMPDEST POP SWAP4 SWAP3 POP POP POP JUMP JUMPDEST PUSH0 DUP3 PUSH1 0x1F DUP4 ADD SLT PUSH2 0xF25 JUMPI PUSH2 0xF24 PUSH2 0xE12 JUMP JUMPDEST JUMPDEST DUP2 CALLDATALOAD PUSH2 0xF35 DUP5 DUP3 PUSH1 0x20 DUP7 ADD PUSH2 0xED0 JUMP JUMPDEST SWAP2 POP POP SWAP3 SWAP2 POP POP JUMP JUMPDEST PUSH0 DUP1 PUSH0 DUP1 PUSH1 0x80 DUP6 DUP8 SUB SLT ISZERO PUSH2 0xF56 JUMPI PUSH2 0xF55 PUSH2 0xB34 JUMP JUMPDEST JUMPDEST PUSH0 PUSH2 0xF63 DUP8 DUP3 DUP9 ADD PUSH2 0xB5B JUMP JUMPDEST SWAP5 POP POP PUSH1 0x20 DUP6 ADD CALLDATALOAD PUSH8 0xFFFFFFFFFFFFFFFF DUP2 GT ISZERO PUSH2 0xF84 JUMPI PUSH2 0xF83 PUSH2 0xB38 JUMP JUMPDEST JUMPDEST PUSH2 0xF90 DUP8 DUP3 DUP9 ADD PUSH2 0xF11 JUMP JUMPDEST SWAP4 POP POP PUSH1 0x40 DUP6 ADD CALLDATALOAD PUSH8 0xFFFFFFFFFFFFFFFF DUP2 GT ISZERO PUSH2 0xFB1 JUMPI PUSH2 0xFB0 PUSH2 0xB38 JUMP JUMPDEST JUMPDEST PUSH2 0xFBD DUP8 DUP3 DUP9 ADD PUSH2 0xF11 JUMP JUMPDEST SWAP3 POP POP PUSH1 0x60 DUP6 ADD CALLDATALOAD PUSH8 0xFFFFFFFFFFFFFFFF DUP2 GT ISZERO PUSH2 0xFDE JUMPI PUSH2 0xFDD PUSH2 0xB38 JUMP JUMPDEST JUMPDEST PUSH2 0xFEA DUP8 DUP3 DUP9 ADD PUSH2 0xF11 JUMP JUMPDEST SWAP2 POP POP SWAP3 SWAP6 SWAP2 SWAP5 POP SWAP3 POP JUMP JUMPDEST PUSH32 0x4E487B7100000000000000000000000000000000000000000000000000000000 PUSH0 MSTORE PUSH1 0x32 PUSH1 0x4 MSTORE PUSH1 0x24 PUSH0 REVERT JUMPDEST PUSH32 0x4E487B7100000000000000000000000000000000000000000000000000000000 PUSH0 MSTORE PUSH1 0x22 PUSH1 0x4 MSTORE PUSH1 0x24 PUSH0 REVERT JUMPDEST PUSH0 PUSH1 0x2 DUP3 DIV SWAP1 POP PUSH1 0x1 DUP3 AND DUP1 PUSH2 0x1067 JUMPI PUSH1 0x7F DUP3 AND SWAP2 POP JUMPDEST PUSH1 0x20 DUP3 LT DUP2 SUB PUSH2 0x107A JUMPI PUSH2 0x1079 PUSH2 0x1023 JUMP JUMPDEST JUMPDEST POP SWAP2 SWAP1 POP JUMP JUMPDEST PUSH32 0x55736572204E6F7420466F756E64000000000000000000000000000000000000 PUSH0 DUP3 ADD MSTORE POP JUMP JUMPDEST PUSH0 PUSH2 0x10B4 PUSH1 0xE DUP4 PUSH2 0xD64 JUMP JUMPDEST SWAP2 POP PUSH2 0x10BF DUP3 PUSH2 0x1080 JUMP JUMPDEST PUSH1 0x20 DUP3 ADD SWAP1 POP SWAP2 SWAP1 POP JUMP JUMPDEST PUSH0 PUSH1 0x20 DUP3 ADD SWAP1 POP DUP2 DUP2 SUB PUSH0 DUP4 ADD MSTORE PUSH2 0x10E1 DUP2 PUSH2 0x10A8 JUMP JUMPDEST SWAP1 POP SWAP2 SWAP1 POP JUMP JUMPDEST PUSH32 0x55536572206E6F7420666F756E64000000000000000000000000000000000000 PUSH0 DUP3 ADD MSTORE POP JUMP JUMPDEST PUSH0 PUSH2 0x111C PUSH1 0xE DUP4 PUSH2 0xD64 JUMP JUMPDEST SWAP2 POP PUSH2 0x1127 DUP3 PUSH2 0x10E8 JUMP JUMPDEST PUSH1 0x20 DUP3 ADD SWAP1 POP SWAP2 SWAP1 POP JUMP JUMPDEST PUSH0 PUSH1 0x20 DUP3 ADD SWAP1 POP DUP2 DUP2 SUB PUSH0 DUP4 ADD MSTORE PUSH2 0x1149 DUP2 PUSH2 0x1110 JUMP JUMPDEST SWAP1 POP SWAP2 SWAP1 POP JUMP JUMPDEST PUSH32 0x4E487B7100000000000000000000000000000000000000000000000000000000 PUSH0 MSTORE PUSH1 0x11 PUSH1 0x4 MSTORE PUSH1 0x24 PUSH0 REVERT JUMPDEST PUSH0 PUSH2 0x1187 DUP3 PUSH2 0xB3C JUMP JUMPDEST SWAP2 POP PUSH2 0x1192 DUP4 PUSH2 0xB3C JUMP JUMPDEST SWAP3 POP DUP3 DUP3 SUB SWAP1 POP DUP2 DUP2 GT ISZERO PUSH2 0x11AA JUMPI PUSH2 0x11A9 PUSH2 0x1150 JUMP JUMPDEST JUMPDEST SWAP3 SWAP2 POP POP JUMP JUMPDEST PUSH0 DUP2 SLOAD SWAP1 POP PUSH2 0x11BE DUP2 PUSH2 0x1050 JUMP JUMPDEST SWAP1 POP SWAP2 SWAP1 POP JUMP JUMPDEST PUSH0 DUP2 SWAP1 POP DUP2 PUSH0 MSTORE PUSH1 0x20 PUSH0 KECCAK256 SWAP1 POP SWAP2 SWAP1 POP JUMP JUMPDEST PUSH0 PUSH1 0x20 PUSH1 0x1F DUP4 ADD DIV SWAP1 POP SWAP2 SWAP1 POP JUMP JUMPDEST PUSH0 DUP3 DUP3 SHL SWAP1 POP SWAP3 SWAP2 POP POP JUMP JUMPDEST PUSH0 PUSH1 0x8 DUP4 MUL PUSH2 0x1221 PUSH32 0xFFFFFFFFFFFFFFFFFFFFFFFFFFFFFFFFFFFFFFFFFFFFFFFFFFFFFFFFFFFFFFFF DUP3 PUSH2 0x11E6 JUMP JUMPDEST PUSH2 0x122B DUP7 DUP4 PUSH2 0x11E6 JUMP JUMPDEST SWAP6 POP DUP1 NOT DUP5 AND SWAP4 POP DUP1 DUP7 AND DUP5 OR SWAP3 POP POP POP SWAP4 SWAP3 POP POP POP JUMP JUMPDEST PUSH0 DUP2 SWAP1 POP SWAP2 SWAP1 POP JUMP JUMPDEST PUSH0 PUSH2 0x1266 PUSH2 0x1261 PUSH2 0x125C DUP5 PUSH2 0xB3C JUMP JUMPDEST PUSH2 0x1243 JUMP JUMPDEST PUSH2 0xB3C JUMP JUMPDEST SWAP1 POP SWAP2 SWAP1 POP JUMP JUMPDEST PUSH0 DUP2 SWAP1 POP SWAP2 SWAP1 POP JUMP JUMPDEST PUSH2 0x127F DUP4 PUSH2 0x124C JUMP JUMPDEST PUSH2 0x1293 PUSH2 0x128B DUP3 PUSH2 0x126D JUMP JUMPDEST DUP5 DUP5 SLOAD PUSH2 0x11F2 JUMP JUMPDEST DUP3 SSTORE POP POP POP POP JUMP JUMPDEST PUSH0 SWAP1 JUMP JUMPDEST PUSH2 0x12A7 PUSH2 0x129B JUMP JUMPDEST PUSH2 0x12B2 DUP2 DUP5 DUP5 PUSH2 0x1276 JUMP JUMPDEST POP POP POP JUMP JUMPDEST JUMPDEST DUP2 DUP2 LT ISZERO PUSH2 0x12D5 JUMPI PUSH2 0x12CA PUSH0 DUP3 PUSH2 0x129F JUMP JUMPDEST PUSH1 0x1 DUP2 ADD SWAP1 POP PUSH2 0x12B8 JUMP JUMPDEST POP POP JUMP JUMPDEST PUSH1 0x1F DUP3 GT ISZERO PUSH2 0x131A JUMPI PUSH2 0x12EB DUP2 PUSH2 0x11C5 JUMP JUMPDEST PUSH2 0x12F4 DUP5 PUSH2 0x11D7 JUMP JUMPDEST DUP2 ADD PUSH1 0x20 DUP6 LT ISZERO PUSH2 0x1303 JUMPI DUP2 SWAP1 POP JUMPDEST PUSH2 0x1317 PUSH2 0x130F DUP6 PUSH2 0x11D7 JUMP JUMPDEST DUP4 ADD DUP3 PUSH2 0x12B7 JUMP JUMPDEST POP POP JUMPDEST POP POP POP JUMP JUMPDEST PUSH0 DUP3 DUP3 SHR SWAP1 POP SWAP3 SWAP2 POP POP JUMP JUMPDEST PUSH0 PUSH2 0x133A PUSH0 NOT DUP5 PUSH1 0x8 MUL PUSH2 0x131F JUMP JUMPDEST NOT DUP1 DUP4 AND SWAP2 POP POP SWAP3 SWAP2 POP POP JUMP JUMPDEST PUSH0 PUSH2 0x1352 DUP4 DUP4 PUSH2 0x132B JUMP JUMPDEST SWAP2 POP DUP3 PUSH1 0x2 MUL DUP3 OR SWAP1 POP SWAP3 SWAP2 POP POP JUMP JUMPDEST DUP2 DUP2 SUB PUSH2 0x1370 JUMPI POP POP PUSH2 0x1445 JUMP JUMPDEST PUSH2 0x1379 DUP3 PUSH2 0x11B0 JUMP JUMPDEST PUSH8 0xFFFFFFFFFFFFFFFF DUP2 GT ISZERO PUSH2 0x1392 JUMPI PUSH2 0x1391 PUSH2 0xE1A JUMP JUMPDEST JUMPDEST PUSH2 0x139C DUP3 SLOAD PUSH2 0x1050 JUMP JUMPDEST PUSH2 0x13A7 DUP3 DUP3 DUP6 PUSH2 0x12D9 JUMP JUMPDEST PUSH0 PUSH1 0x1F DUP4 GT PUSH1 0x1 DUP2 EQ PUSH2 0x13D4 JUMPI PUSH0 DUP5 ISZERO PUSH2 0x13C2 JUMPI DUP3 DUP8 ADD SLOAD SWAP1 POP JUMPDEST PUSH2 0x13CC DUP6 DUP3 PUSH2 0x1347 JUMP JUMPDEST DUP7 SSTORE POP PUSH2 0x143E JUMP JUMPDEST PUSH1 0x1F NOT DUP5 AND PUSH2 0x13E2 DUP8 PUSH2 0x11C5 JUMP JUMPDEST SWAP7 POP PUSH2 0x13ED DUP7 PUSH2 0x11C5 JUMP JUMPDEST PUSH0 JUMPDEST DUP3 DUP2 LT ISZERO PUSH2 0x1414 JUMPI DUP5 DUP10 ADD SLOAD DUP3 SSTORE PUSH1 0x1 DUP3 ADD SWAP2 POP PUSH1 0x1 DUP6 ADD SWAP5 POP PUSH1 0x20 DUP2 ADD SWAP1 POP PUSH2 0x13EF JUMP JUMPDEST DUP7 DUP4 LT ISZERO PUSH2 0x1431 JUMPI DUP5 DUP10 ADD SLOAD PUSH2 0x142D PUSH1 0x1F DUP10 AND DUP3 PUSH2 0x132B JUMP JUMPDEST DUP4 SSTORE POP JUMPDEST PUSH1 0x1 PUSH1 0x2 DUP9 MUL ADD DUP9 SSTORE POP POP POP JUMPDEST POP POP POP POP POP POP JUMPDEST JUMP JUMPDEST PUSH32 0x4E487B7100000000000000000000000000000000000000000000000000000000 PUSH0 MSTORE PUSH1 0x31 PUSH1 0x4 MSTORE PUSH1 0x24 PUSH0 REVERT JUMPDEST PUSH2 0x147D DUP3 PUSH2 0xBA9 JUMP JUMPDEST PUSH8 0xFFFFFFFFFFFFFFFF DUP2 GT ISZERO PUSH2 0x1496 JUMPI PUSH2 0x1495 PUSH2 0xE1A JUMP JUMPDEST JUMPDEST PUSH2 0x14A0 DUP3 SLOAD PUSH2 0x1050 JUMP JUMPDEST PUSH2 0x14AB DUP3 DUP3 DUP6 PUSH2 0x12D9 JUMP JUMPDEST PUSH0 PUSH1 0x20 SWAP1 POP PUSH1 0x1F DUP4 GT PUSH1 0x1 DUP2 EQ PUSH2 0x14DC JUMPI PUSH0 DUP5 ISZERO PUSH2 0x14CA JUMPI DUP3 DUP8 ADD MLOAD SWAP1 POP JUMPDEST PUSH2 0x14D4 DUP6 DUP3 PUSH2 0x1347 JUMP JUMPDEST DUP7 SSTORE POP PUSH2 0x153B JUMP JUMPDEST PUSH1 0x1F NOT DUP5 AND PUSH2 0x14EA DUP7 PUSH2 0x11C5 JUMP JUMPDEST PUSH0 JUMPDEST DUP3 DUP2 LT ISZERO PUSH2 0x1511 JUMPI DUP5 DUP10 ADD MLOAD DUP3 SSTORE PUSH1 0x1 DUP3 ADD SWAP2 POP PUSH1 0x20 DUP6 ADD SWAP5 POP PUSH1 0x20 DUP2 ADD SWAP1 POP PUSH2 0x14EC JUMP JUMPDEST DUP7 DUP4 LT ISZERO PUSH2 0x152E JUMPI DUP5 DUP10 ADD MLOAD PUSH2 0x152A PUSH1 0x1F DUP10 AND DUP3 PUSH2 0x132B JUMP JUMPDEST DUP4 SSTORE POP JUMPDEST PUSH1 0x1 PUSH1 0x2 DUP9 MUL ADD DUP9 SSTORE POP POP POP JUMPDEST POP POP POP POP POP POP JUMP JUMPDEST PUSH32 0x55736572206E6F7420666F756E64000000000000000000000000000000000000 PUSH0 DUP3 ADD MSTORE POP JUMP JUMPDEST PUSH0 PUSH2 0x1577 PUSH1 0xE DUP4 PUSH2 0xD64 JUMP JUMPDEST SWAP2 POP PUSH2 0x1582 DUP3 PUSH2 0x1543 JUMP JUMPDEST PUSH1 0x20 DUP3 ADD SWAP1 POP SWAP2 SWAP1 POP JUMP JUMPDEST PUSH0 PUSH1 0x20 DUP3 ADD SWAP1 POP DUP2 DUP2 SUB PUSH0 DUP4 ADD MSTORE PUSH2 0x15A4 DUP2 PUSH2 0x156B JUMP JUMPDEST SWAP1 POP SWAP2 SWAP1 POP JUMP INVALID LOG2 PUSH5 0x6970667358 0x22 SLT KECCAK256 0xED BYTE LT 0x27 DUP2 SAR 0xB8 0xF PUSH9 0x416A9E7F1299F21612 MCOPY PUSH23 0xA59ADDE2384E03E2C2AF652664736F6C634300081A0033 "
		},
		"gasEstimates": {
			"creation": {
				"codeDepositCost": "1120200",
				"executionCost": "25462",
				"totalCost": "1145662"
			},
			"external": {
				"activate(uint256)": "infinite",
				"addUser(uint256,string,string,string)": "infinite",
				"deleteUser(uint256)": "infinite",
				"getUserInfoById(uint256)": "infinite",
				"kycStatus()": "2618",
				"makeInProgress(uint256)": "infinite",
				"reject()": "24474",
				"userList(uint256)": "infinite"
			},
			"internal": {
				"findUserIndex(uint256)": "infinite"
			}
		},
		"methodIdentifiers": {
			"activate(uint256)": "b260c42a",
			"addUser(uint256,string,string,string)": "ae534ec8",
			"deleteUser(uint256)": "38f14845",
			"getUserInfoById(uint256)": "31f01140",
			"kycStatus()": "89ec615d",
			"makeInProgress(uint256)": "d1cb3f32",
			"reject()": "4dc415de",
			"userList(uint256)": "9f4216e8"
		}
	},
	"abi": [
		{
			"inputs": [],
			"stateMutability": "nonpayable",
			"type": "constructor"
		},
		{
			"inputs": [
				{
					"internalType": "uint256",
					"name": "id",
					"type": "uint256"
				}
			],
			"name": "activate",
			"outputs": [],
			"stateMutability": "nonpayable",
			"type": "function"
		},
		{
			"inputs": [
				{
					"internalType": "uint256",
					"name": "id",
					"type": "uint256"
				},
				{
					"internalType": "string",
					"name": "firstName",
					"type": "string"
				},
				{
					"internalType": "string",
					"name": "lastName",
					"type": "string"
				},
				{
					"internalType": "string",
					"name": "email",
					"type": "string"
				}
			],
			"name": "addUser",
			"outputs": [],
			"stateMutability": "nonpayable",
			"type": "function"
		},
		{
			"inputs": [
				{
					"internalType": "uint256",
					"name": "id",
					"type": "uint256"
				}
			],
			"name": "deleteUser",
			"outputs": [],
			"stateMutability": "nonpayable",
			"type": "function"
		},
		{
			"inputs": [
				{
					"internalType": "uint256",
					"name": "id",
					"type": "uint256"
				}
			],
			"name": "getUserInfoById",
			"outputs": [
				{
					"components": [
						{
							"internalType": "uint256",
							"name": "id",
							"type": "uint256"
						},
						{
							"internalType": "string",
							"name": "firstName",
							"type": "string"
						},
						{
							"internalType": "string",
							"name": "lastName",
							"type": "string"
						},
						{
							"internalType": "string",
							"name": "email",
							"type": "string"
						},
						{
							"internalType": "enum SimpleStorage.KycStatus",
							"name": "kycStatus",
							"type": "uint8"
						}
					],
					"internalType": "struct SimpleStorage.User",
					"name": "",
					"type": "tuple"
				}
			],
			"stateMutability": "view",
			"type": "function"
		},
		{
			"inputs": [],
			"name": "kycStatus",
			"outputs": [
				{
					"internalType": "enum SimpleStorage.KycStatus",
					"name": "",
					"type": "uint8"
				}
			],
			"stateMutability": "view",
			"type": "function"
		},
		{
			"inputs": [
				{
					"internalType": "uint256",
					"name": "id",
					"type": "uint256"
				}
			],
			"name": "makeInProgress",
			"outputs": [],
			"stateMutability": "nonpayable",
			"type": "function"
		},
		{
			"inputs": [],
			"name": "reject",
			"outputs": [],
			"stateMutability": "nonpayable",
			"type": "function"
		},
		{
			"inputs": [
				{
					"internalType": "uint256",
					"name": "",
					"type": "uint256"
				}
			],
			"name": "userList",
			"outputs": [
				{
					"internalType": "uint256",
					"name": "id",
					"type": "uint256"
				},
				{
					"internalType": "string",
					"name": "firstName",
					"type": "string"
				},
				{
					"internalType": "string",
					"name": "lastName",
					"type": "string"
				},
				{
					"internalType": "string",
					"name": "email",
					"type": "string"
				},
				{
					"internalType": "enum SimpleStorage.KycStatus",
					"name": "kycStatus",
					"type": "uint8"
				}
			],
			"stateMutability": "view",
			"type": "function"
		}
	]
}